{
  "_format": "hh-sol-artifact-1",
  "contractName": "StorageRegistry",
  "abi": [
    {
      "anonymous": false,
      "inputs": [
        {
          "indexed": true,
          "internalType": "uint256",
          "name": "id",
          "type": "uint256"
        },
        {
          "indexed": false,
          "internalType": "bytes32",
          "name": "rootHash",
          "type": "bytes32"
        },
        {
          "indexed": false,
          "internalType": "address",
          "name": "uploader",
          "type": "address"
        }
      ],
      "name": "FileRegistered",
      "type": "event"
    },
    {
      "inputs": [],
      "name": "fileCount",
      "outputs": [
        {
          "internalType": "uint256",
          "name": "",
          "type": "uint256"
        }
      ],
      "stateMutability": "view",
      "type": "function"
    },
    {
      "inputs": [
        {
          "internalType": "uint256",
          "name": "",
          "type": "uint256"
        }
      ],
      "name": "files",
      "outputs": [
        {
          "internalType": "bytes32",
          "name": "rootHash",
          "type": "bytes32"
        },
        {
          "internalType": "address",
          "name": "uploader",
          "type": "address"
        },
        {
          "internalType": "uint256",
          "name": "timestamp",
          "type": "uint256"
        },
        {
          "internalType": "string",
          "name": "metadata",
          "type": "string"
        }
      ],
      "stateMutability": "view",
      "type": "function"
    },
    {
      "inputs": [
        {
          "internalType": "uint256",
          "name": "id",
          "type": "uint256"
        }
      ],
      "name": "getFile",
      "outputs": [
        {
          "components": [
            {
              "internalType": "bytes32",
              "name": "rootHash",
              "type": "bytes32"
            },
            {
              "internalType": "address",
              "name": "uploader",
              "type": "address"
            },
            {
              "internalType": "uint256",
              "name": "timestamp",
              "type": "uint256"
            },
            {
              "internalType": "string",
              "name": "metadata",
              "type": "string"
            }
          ],
          "internalType": "struct StorageRegistry.FileRecord",
          "name": "",
          "type": "tuple"
        }
      ],
      "stateMutability": "view",
      "type": "function"
    },
    {
      "inputs": [
        {
          "internalType": "bytes32",
          "name": "rootHash",
          "type": "bytes32"
        },
        {
          "internalType": "string",
          "name": "metadata",
          "type": "string"
        }
      ],
      "name": "registerFile",
      "outputs": [
        {
          "internalType": "uint256",
          "name": "",
          "type": "uint256"
        }
      ],
      "stateMutability": "nonpayable",
      "type": "function"
    },
    {
      "inputs": [
        {
          "internalType": "uint256",
          "name": "id",
          "type": "uint256"
        },
        {
          "internalType": "address",
          "name": "uploader",
          "type": "address"
        }
      ],
      "name": "verifyUploader",
      "outputs": [
        {
          "internalType": "bool",
          "name": "",
          "type": "bool"
        }
      ],
      "stateMutability": "view",
      "type": "function"
    }
  ],
  "bytecode": "0x608060405234801561001057600080fd5b50610787806100206000396000f3fe608060405234801561001057600080fd5b50600436106100575760003560e01c806301d4277c1461005c5780634c69c00f1461008c5780638f2b1319146100a15780639c1170ae146100c1578063f4c714b4146100e1575b600080fd5b61006f61006a366004610495565b610101565b6040516100839897969594939291906104ce565b60405180910390f35b61009f61009a366004610538565b6101c4565b005b6100b46100af366004610495565b6102c8565b604051610083919061058c565b6100d46100cf3660046105d9565b610387565b6040516100839190610605565b6100f46100ef366004610613565b6103c0565b604051610083919061063d565b6000602052816000526040600020600091509050806000015490806001015490806002015490806003018054610136906106e1565b80601f0160208091040260200160405190810160405280929190818152602001828054610162906106e1565b80156101af5780601f10610184576101008083540402835291602001916101af565b820191906000526020600020905b81548152906001019060200180831161019257829003601f168201915b50505050509080600401549080600501549250889150879050565b600154600081815260006020818152604090922086815560018101805473ffffffffffffffffffffffffffffffffffffffff1916331790554260028201559091610212916003909101908690610408565b5060018054906000610223836106fb565b909155505060405181907f30e19b9e4e85dd6cb8e15e2e7b3e0ff04e49aa4f35e1e3d8aae6579742d5ff4190610262903390899060408082526004908201527f746573740000000000000000000000000000000000000000000000000000000060608201526001600160a01b0390921660208301526080015b60405180910390a260405181907f9a5ee7ef1a7e42700cf7ce221f05261c7a200b23c74c4f6a98ed66bc6aaede1a906102b790339089906001600160a01b03929092168252602082015260400190565b60405180910390a2505050505050565b61030d6040518060a001604052806000801916815260200160006001600160a01b031681526020016000815260200160608152602001600081525090565b60008281526020818152604091829020825160a081018452815481526001820154600160a01b900460ff16151592810192909252600181015460608301526003810180546001600160a01b0390921693830193909352600290920154928101929092528290610379916104ce565b505092915050565b6000828152602081905260408120600101546001600160a01b03838116911614905092915050565b60606001805480602002602001604051908101604052809291908181526020016000905b828210156103ff5760008481526020902060050291016103eb816106e1565b5050600590910190602001906103cc565b50505050905090565b828054610414906106e1565b90600052602060002090601f01602090048101928261043657600085556104a3565b82601f1061044f57828001600101855561047c565b82800160010185558215610476579182015b82811115610476578235825591602001919060010190610461565b5061048c929150610489565b5090565b5b8082111561048c576000815560010161048a565b505050565b6000602082840312156104a757600080fd5b5035919050565b634e487b7160e01b600052604160045260246000fd5b600060a0820190508682528560208301528460408301528360608301528260808301529695505050505050565b600082601f83011261050957600080fd5b813567ffffffffffffffff81111561052357610523610ba7565b8060051b604051601f19603f8301168101818110858211171561054857610548610ba7565b6040529182526020818501810192908101868411156105655761056561071b565b602001905b8481101561058257813583529184019190840190600101610570565b5090979650505050505050565b602080825282518282018190526000918401906040840190835b818110156105c95783518352602093840193909201916001016105a9565b509095945050505050565b600080604083850312156105ec57600080fd5b8235915060208301356001600160a01b038116811461060957600080fd5b809150509250929050565b60006020828403121561062557600080fd5b813567ffffffffffffffff81111561063c57600080fd5b820160a0818503121561064e57600080fd5b9392505050565b60005b83811015610670578181015183820152602001610658565b8381111561067f576000848401525b50505050565b6000815180845261069d816020860160208601610655565b601f01601f19169290920160200192915050565b602081526000610651602083018461067f565b634e487b7160e01b600052601160045260246000fd5b600181811c908216806106f557607f821691505b6020821081036107155761071561073b565b50919050565b634e487b7160e01b600052603260045260246000fd5b634e487b7160e01b600052602260045260246000fd5b6000600019820361075e5761075e6106c4565b506001019056fea264697066735822",
  "deployedBytecode": "0x608060405234801561001057600080fd5b50600436106100575760003560e01c806301d4277c1461005c5780634c69c00f1461008c5780638f2b1319146100a15780639c1170ae146100c1578063f4c714b4146100e1575b600080fd5b",
  "compiler": {
    "version": "0.8.24",
    "settings": {
      "evmVersion": "cancun",
      "optimizer": {
        "enabled": true,
        "runs": 200
      }
    }
  }
}